:100000000C9434000C9451000C9451000C94510049
:100010000C9451000C9451000C9451000C9451001C
:100020000C9451000C9451000C9451000C9451000C
:100030000C9451000C9451000C9451000C945100FC
:100040000C9451000C9451000C9451000C945100EC
:100050000C9451000C9451000C9451000C945100DC
:100060000C9451000C94510011241FBECFEFD8E026
:10007000DEBFCDBF11E0A0E0B1E0ECE8F2E002C0ED
:1000800005900D92A031B107D9F721E0A0E1B1E0D0
:1000900001C01D92A131B207E1F70E9438010C9412
:1000A00044010C94000084B1816084B984B1826001
:1000B00084B984B1846084B984B1886084B987B11B
:1000C0008E7F87B987B18D7F87B987B18B7F87B9DD
:1000D00087B1877F87B988B1816088B988B182602C
:1000E00088B988B1846088B988B1886088B9089572
:1000F000309909C0309BFECF319BFCCF329BFACFA9
:10010000339BF8CF31C0809110018F5F8093100135
:10011000319909C0309BFECF319BFCCF329BFACF87
:10012000339BF8CF23C08F5F80931001329909C0B1
:10013000309BFECF319BFCCF329BFACF339BF8CF65
:1001400017C08F5F80931001339909C0309BFECF99
:10015000319BFCCF329BFACF339BF8CF0BC08F5F24
:100160008093100180E0089581E0089581E0089572
:1001700081E0089581E0089595B1916095B995B1B8
:10018000926095B995B1946095B995B1986095B91B
:10019000823069F018F4813031F014C0833059F0A6
:1001A000843069F00FC085B18E7F85B90BC085B1F1
:1001B0008D7F85B907C085B18B7F85B903C085B1B7
:1001C000877F85B9000008958FE39CE90197F1F7D7
:1001D00000C000001092100181E00E94BC000E944B
:1001E0007800882339F0E0911001F0E0E050FF4FF3
:1001F0008081089582E00E94BC000E9478008823DC
:1002000039F0E0911001F0E0E050FF4F8081089557
:1002100083E00E94BC000E947800882339F0E091BE
:100220001001F0E0E050FF4F8081089584E00E94CB
:10023000BC000E947800882331F0E0911001F0E0CA
:10024000E050FF4F8081089590ED980F9A3060F054
:100250009FEB980F963010F4875308959FE9980FFD
:10026000963020F487550895892F089580E00895E9
:100270008FEF8AB90E9453000E94E4008823E1F3C3
:0C0280000E9424018BB9F8CFF894FFCF46
:10028C0031323341343536423738394345304644C0
:00000001FF
